:100000006F00E033000000004A0100004E010000D4
:1000100000000000000000000000000000000000E0
:1000200000000000000000000000000000000000D0
:100030000C030000000000000E03000000000000A0
:100040001003000012030000140300001603000058
:10005000180300001A0300001C0300001E03000028
:1000600020030000220300002403000026030000F8
:10007000280300002A0300002C0300002E030000C8
:100080003003000032030000340300003603000098
:10009000380300003A0300003C03000000000000A9
:1000A000511126C022C206C4828282441244A24058
:1000B000310182802A86014593F6150091C232955E
:1000C00085810606F5F9828000000000634E050276
:1000D00063C305042E86AA857D5515C285466378BF
:1000E000B6006356C00006068606E36CB6FE014500
:1000F00063E4C500918D558D85820582F5FA828075
:100100008682C93F2E8582823305A04063D70500D1
:10011000B305B040C1B7B305B0408682653F330533
:10012000A0408282868263C70500634905005D376F
:100130002E858282B305B040E35B05FE3305A04007
:10014000513F3305B040828200007300203001A08F
:10015000EFF21FF51165111185451305050302C066
:1001600002C202C402C602C802CA02CCC926930750
:100170000002371401407C808D473EC28A85E147EA
:10018000130504403EC4352C91478A85371501403C
:100190007C80052C930700047C808A859147130599
:1001A00004403EC4392CA1478A85130504407C8055
:1001B000092CF16793870720374401403EC6B707F3
:1001C0000C003ECA6C009307003013050480FC84C9
:1001D00002C8AD2E8545130504800D297101F1B5C6
:1001E000EFF21FEC8129AD37370500001305857349
:1001F00037440140F52913040480228593058004C7
:100200000D211305401F9D21CDBFB7170240984314
:10021000B706FFFC61111367170098C3D843216626
:10022000758FD8C39843B706F7FEFD16758F98C330
:100230009843B706FCFFFD16758F98C3D843C17667
:10024000FD16758FD8C337079F0098C702C002C23A
:10025000984FB70601401367170098CFD842518FC7
:10026000D8C29843C16637060200558F98C3B716A7
:10027000024009679C42F18F3EC2824785073EC01B
:10028000924781E78247E397E7FEB71702409C4316
:100290001397E7006358070685473EC21247854714
:1002A0006310F706B72702409843C176FD16719B8D
:1002B00098C398431367170098C3B7170240D843F1
:1002C000D8C3D843758FD8C3D843C166558FD8C318
:1002D0009843B7060001558F98C39843931667005B
:1002E000E3DD06FED843B7160240719BD8C3D8435E
:1002F00013672700D8C32147DC42B18BE39EE7FE9A
:100300002101828002C259BF01A001A001A001A069
:1003100001A001A001A001A001A001A001A001A0D5
:1003200001A001A001A001A001A001A001A001A0C5
:1003300001A001A001A001A001A001A001A09701BE
:1003400000209381A14E138181FD1305C07597058F
:100350000020938525CB17060020130626CD63FACF
:10036000C5008322050023A0550011059105E3EA8D
:10037000C5FE17050020130565CB97050020938562
:1003800025CB6377B500232005001105E36DB5FE8D
:1003900093020008739002308D427390428097025E
:1003A0000000938222C693E2320073905230EFF045
:1003B000DFE5970200009382E2E27390123473004B
:1003C00020309C45611122C226C013F7070113F3A8
:1003D000F70001C7D8413363E30092211377F60F8A
:1003E00029C7832305000147130480029304800476
:1003F0008546B395E600B376B6006392D5029312B4
:100400002700BD46B396560093C6F6FFB3F37600B9
:10041000B3125300B3E37200639787064CC9050714
:10042000A146E317D7FC232075001307F00F63786C
:10043000C70483234500A14613048002930480046B
:100440000547B312D700337756006394E20213973F
:1004500026000117BD45B395E50093C5F5FFB3F33D
:1004600075003317E300B363770063928702232A92
:10047000550085064147E395E6FC232275001244AA
:10048000824421018280E39C97F80CC949BFE39222
:1004900097FE23285500F1BFEFF29FC037170240A7
:1004A0005C4391462A84B18B6385D700A146638A59
:1004B000D706B7376E01938707601CC0B716024096
:1004C000DC42918313F7F700B70700209387870179
:1004D000BA978C23DC42184093F5F50F93F7070881
:1004E0003355B70099E33A85F53648C008C448C487
:1004F000B7170240DC43AD83FD8B13D737008A0763
:10050000F18BD98F93F637010D476373D700D1175D
:100510003707002013074700BA978C23653E08C8A9
:1005200069B65C43B777DC02938707C079B799C592
:10053000371702401C4F5D8D08CF8280B7170240ED
:10054000984F1345F5FF798D88CF8280EFF25FB524
:100550001629F577FD17F58FF621DA252111D58FAC
:100560001EA95625FD779387379FF58FD6212A84BC
:100570002EC0D58F9625D58FB625D58F5EA55E2941
:10058000C207C18393F7F7CF5D8F5AA94800293777
:10059000B7470140938707808245631DF404C24733
:1005A0005A24139517003E9542070E0541873E9544
:1005B0008C41635307048605313E930540062AC0EB
:1005C000113E824793144500930540063E850D3E3B
:1005D0005E24C207C18763D307020E059305400658
:1005E00013052503C53C1D89C98CC204C18006A41E
:1005F000610165BCB2476DB78A057DBF12059305E1
:10060000400613052503F9343D89F9BF91C55E25E0
:100610000967D98F5EA582805A25F977FD17F98F72
:10062000D5BF93F5F51F4EA182800A216D8D33351C
:10063000A0008280EFF2DFA6B707002003A5070025
:10064000B7157A009385052071341375F50FB70738
:1006500000202385A70293175500898F8A073E95AE
:100660000E05B70700202394A70281B4EFF25FA321
:1006700037F400E05C40AA85F99B5CC0B707002016
:1006800003D58702053C08C8232404001C4093E7D7
:1006900017001CC0B7F700E0D843058B75DF9843FF
:1006A000799B98C319B4EFF2BF9F7111AE840144D6
:1006B000635DC402B7470140138707803A859305FD
:1006C000000432C09D37B7470140138707800246B8
:1006D00075D53387840083050700138507800504DB
:1006E000C205C1813D3F0246E1B73285110175BAAD
:1006F000411122C426C206C61C21AA840144DC8101
:1007000083073100050491EFA947930531000546A1
:100710000145DC81493F2285B24022449244410197
:1007200082800546930531000145B53FB3878400BB
:100730009C23DC81F1B700005553415254312048CD
:100740006172647761726520466C6F7720436F6ECB
:0C07500074726F6C20544553540D00006F
:10075C00006CDC020204060804080C1008101820B7
:10076C001020304020406080010203040506070879
:08077C00010203040506070851
:00000001FF
