:100000006F00405900000000F2010000F6010000FE
:1000100000000000000000000000000000000000E0
:1000200000000000000000000000000000000000D0
:1000300062050000000000006405000000000000F0
:1000400066050000680500006A0500006C050000F8
:100050006E050000700500007205000074050000C8
:1000600076050000780500007A0500007C05000098
:100070007E05000080050000820500008405000068
:10008000D8020000880500008A0500008C050000E9
:100090008E050000900500009205000000000000A1
:1000A000511126C022C206C4828282441244A24058
:1000B000310182802A86014593F6150091C232955E
:1000C00085810606F5F9828000000000634E050276
:1000D00063C305042E86AA857D5515C285466378BF
:1000E000B6006356C00006068606E36CB6FE014500
:1000F00063E4C500918D558D85820582F5FA828075
:100100008682C93F2E8582823305A04063D70500D1
:10011000B305B040C1B7B305B0408682653F330533
:10012000A0408282868263C70500634905005D376F
:100130002E858282B305B040E35B05FE3305A04007
:10014000513F3305B040828200003D432A876373EC
:10015000C3029377F700BDEFADE5937606FF3D8AC6
:10016000BA960CC34CC30CC74CC74107E36BD7FE10
:1001700011E28280B306C3408A0697020000969679
:100180006780A6002307B700A306B7002306B700C1
:10019000A305B7002305B700A304B7002304B700E5
:1001A000A303B7002303B700A302B7002302B700DD
:1001B000A301B7002301B700A300B7002300B700D5
:1001C000828093F5F50F93968500D58D9396050162
:1001D000D58D61B793962700970200009696868288
:1001E000E78086FA9680C1171D8F3E96E374C3F8A8
:1001F000A5B77300203001A0EFF29FEA130141FD83
:100200001306C00281450A858937854505453704AF
:100210000240EF00C06F130544048545D921854590
:10022000130584057D2913054404FD269387018267
:100230003EC2C1473EC4B7440140930700081307BC
:1002400000028A85938444803ECA130544048D6766
:100250003AC63ED226C002C802CC02CE02D002D498
:10026000A921130584054D2EB70700209387870227
:10027000130700028A851305840526C03EC23AC6CC
:1002800002C425211301C1020DB5EFF27FE1CD2A91
:10029000374401409537EF00B002492405469305E5
:1002A000000813050480EF00C07B1305803EEF00BB
:1002B000700413050480054693050004EF00607A7E
:1002C0001304048079247DDD952C93150501C181EB
:1002D0002285EF00207AFDB7711122C0374401401A
:1002E0009305505213050480EF00C07901C913052E
:1002F0000480EF00A0781375F50F152C024411014E
:10030000730020300CC12322050012A582805221E7
:1003100016252A8793071600C207C18363E3D70017
:10032000814776237D556387F60014430145B296D5
:100330008CA25EA3828076215E216381D70293879F
:1003400016001A25C207C18363E3E70081471841FD
:100350003697182398A17EA1014582807D55828021
:10036000522176219377F60F13F7F60F6367D600C5
:100370003385E7401375F50F828008253E95198D6A
:10038000D5BFB71702409843B706FFFC611113674A
:10039000170098C3D8432166758FD8C39843B70612
:1003A000F7FEFD16758F98C39843B706FCFFFD1640
:1003B000758F98C3D843C176FD16758FD8C337079C
:1003C0009F0098C702C002C2984FB706014013674A
:1003D000170098CFD842518FD8C29843C1663706CC
:1003E0000200558F98C3B716024009679C42F18FEF
:1003F0003EC2824785073EC0924781E78247E39726
:10040000E7FEB71702409C431397E70063580706BF
:1004100085473EC2124785476310F706B72702405B
:100420009843C176FD16719B98C3984313671700D4
:1004300098C3B7170240D843D8C3D843758FD8C3E1
:10044000D843C166558FD8C39843B7060001558F6E
:1004500098C3984393166700E3DD06FED843B716AA
:100460000240719BD8C3D84313672700D8C32147E4
:10047000DC42B18BE39EE7FE2101828002C259BFBC
:10048000EFF21FC211651301C1FD85451305050279
:1004900002C402C602C802CA02CC02CE02D002C006
:1004A00002C26921930700027C8437140140E147AE
:1004B0003EC82C008D47130504403EC62D2C9307E3
:1004C00000047C842C009147130504403EC8252479
:1004D000F16737440140938707203ECA4C08B707AD
:1004E0000C00130504803ECE02CC23100102B1297A
:1004F000054693055052130504800D2B93070012F7
:100500007C8085475C810A8585473EC2C12485453C
:100510001305048009231301410241BEEFF25FB8C5
:1005200021469385018413858184E93BBDBEEFF2AA
:100530003FB7AA8513858184D93B85BEEFF25FB6AC
:1005400071119305310013858184F5338881110180
:10055000A9BEEFF2FFB4138581841935B9B601A0A5
:1005600001A001A001A001A001A001A001A001A083
:1005700001A001A001A001A001A001A001A001A073
:1005800001A001A001A001A001A001A001A001A063
:1005900001A001A09701002093814129138181FDD1
:1005A000170500001305055997050020938585A5BB
:1005B00017060020130686A763FAC50083220500EC
:1005C00023A0550011059105E3EAC5FE170500209B
:1005D0001305C5A59385C1856377B5002320050064
:1005E0001105E36DB5FE93020008739002308D4251
:1005F00073904280970200009382C2A093E232007F
:1006000073905230EFF0FFD797020000938222C818
:1006100073901234730020301C4141677917F98FB1
:100620001CC1232005002322050023240500B70751
:10063000024023260500138787006317E500D8438F
:100640001367F700D8C382801387C7016316E500DC
:10065000D8431367070FFDB7138707036318E50037
:10066000D8438566938606F0558FE9BF1387470404
:100670006315E500D843BD66C5BF138787056316BC
:10068000E500D843B7060F00C5B71387C706631642
:10069000E500D843B706F000C1BF13870708E3148D
:1006A000E5FAD843B706000FC1B71841E177BD0797
:1006B00094517D8F9C45D58F9449D58FD449D58F42
:1006C000944DD58FD44DD58FD451D58F9455D58F8A
:1006D000D98F1CC1DC455CC19C411CC5DC415CC59B
:1006E00082801C4189C593E717001CC18280416745
:1006F0007917F98FDDBF9C45611122C226C013F71F
:10070000070113F3F70001C7D8413363E3009221D7
:100710001377F60F29C783230500014713048002CE
:10072000930480048546B395E600B376B6006392E1
:10073000D50293122700BD46B396560093C6F6FF26
:10074000B3F37600B3125300B3E3720063978706E6
:100750004CC90507A146E317D7FC232075001307F2
:10076000F00F6378C70483234500A1461304800279
:10077000930480040547B312D7003377560063947F
:10078000E202139726000117BD45B395E50093C516
:10079000F5FFB3F375003317E300B363770063929B
:1007A0008702232A550085064147E395E6FC23226C
:1007B00075001244824421018280E39C97F80CC9A1
:1007C00049BFE39297FE23285500F1BF93874185E7
:1007D0009443182181E63C21920721A894430546C1
:1007E000639FC6023C21103192076314D60093E741
:1007F00007F8B7E600E093F7F70FBA962380F640C4
:100800008546935757003397E6005441A5C2938716
:1008100007048A07B7E600E0B69798C382808C4346
:1008200089466391D50214313C216365D6008A065E
:10083000B6975DB79386E6038A06B69793F7F70FE8
:10084000920775B790438D46631CD60014313C2146
:100850006364D6008606E9BF9386C6078606F1BFA5
:1008600094439147E39EF6F81C31BDB79387070682
:100870004DB7EFF2FF82371702405C4391462A845E
:10088000B18B6385D700A146638DD706B7376E015C
:10089000938707601CC0B7160240DC42918313F7B0
:1008A000F700B707002093878701BA978C23DC42B3
:1008B000184093F5F50F93F707083355B70081E714
:1008C0003A85EFF03F8148C008C448C4B7170240DA
:1008D000DC43AD83FD8B13D737008A07F18BD98FAB
:1008E00093F637010D476373D700D1173707002000
:1008F00013074700BA978C23EFF0CFFD08C86FF0BD
:10090000CFFA5C43B777DC02938707C061B799C51C
:10091000371702405C4B5D8D48CB8280B717024091
:10092000D84B1345F5FF798DC8CB828099C5371711
:1009300002401C4F5D8D08CF8280B7170240984F50
:100940001345F5FF798D88CF8280EFF26FF5162978
:10095000F577FD17F58FF621DA252111D58F1EA920
:100960005625FD779387379FF58FD6212A842EC091
:10097000D58F9625D58FB625D58F5EA55E29C20762
:10098000C18393F7F7CF5D8F5AA94800DD35B7478C
:1009900001409387078082456312F406C2475A24B8
:1009A000139517003E9542070E0541873E958C41F1
:1009B000635807048605EFF0EFF1930540062AC05F
:1009C000EFF04FF1824793144500930540063E85B2
:1009D000EFF00FF35E24C207C18763D507020E054F
:1009E0009305400613052503EFF0CFEE1D89C98C52
:1009F000C204C18006A461016FF02FEBB24745B776
:100A00008A0555BF12059305400613052503EFF02F
:100A10006FEC3D89E9BF91C55E250967D98F5EA559
:100A200082805A25F977FD17F98FD5BF13F7F50F97
:100A300085471583B395B7006319F7009307C50081
:100A4000984301CED98D8CC3828089469307450196
:100A5000E318D7FE93070501E5B793C5F5FFF98DB8
:100A6000DDB75E2901C6DD8D4EA9828093C5F5FFF5
:100A7000FD8DDDBF93F5F51F4EA182804A211375D0
:100A8000F51F828013F7F50F85461583B397B600DF
:100A90006311D7025A25F98F1A2101454207418374
:100AA00081CB0545A181B315B5006D8F3335E000CD
:100AB000828089466314D7001A29F1BF5A29E1BF01
:100AC000EFF20FDEB707002003A50700B7157A0085
:100AD00093850520EFF00FE01375F50F238DA184AA
:100AE00093175500898F8A073E950E05239CA18494
:100AF0006FF0AFDBEFF2CFDA37F400E05C40AA85AD
:100B0000F99B5CC003D58185EFF0CFDA08C82324B8
:100B100004001C4093E717001CC0B7F700E0D8435F
:100B2000058B75DF9843799B98C36FF00FD8000051
:100B3000006CDC020204060804080C1008101820DF
:100B400010203040204060800102030405060708A1
:080B5000010203040506070879
:00000001FF
