:100000006F00604100000000320100003601000076
:1000100000000000000000000000000000000000E0
:1000200000000000000000000000000000000000D0
:10003000E403000000000000E603000000000000F0
:10004000E8030000EA030000EC030000EE030000F8
:10005000F0030000F2030000F4030000F6030000C8
:10006000F8030000FA030000FC030000FE03000098
:100070000004000002040000040400000604000064
:100080005A0100000A0400000C0400000E040000E5
:10009000100400001204000014040000000000001E
:1000A000511126C022C206C4828282441244A24058
:1000B00031018280634E050263C305042E86AA8542
:1000C0007D5515C285466378B6006356C0000606A6
:1000D0008606E36CB6FE014563E4C500918D558D3F
:1000E00085820582F5FA82808682C93F2E858282CA
:1000F0003305A04063D70500B305B040C1B7B305D1
:10010000B0408682653F3305A0408282868263C705
:100110000500634905005D372E858282B305B04036
:10012000E35B05FE3305A040513F3305B0408282BA
:1001300000007300203001A0EFF29FF63744014029
:100140007D2A13040480912C71247DDD8D2C931560
:100150000501C18122854125C5BF711122C03744E7
:1001600001409305505213050480B52D19C51305A0
:100170000480B5251375F50F252C02441101730079
:1001800020300CC12322050012A5828052211625A1
:100190002A8793071600C207C18363E3D70081470C
:1001A00076237D556387F60014430145B2968CA2F1
:1001B0005EA3828076215E216381D7029387160039
:1001C0001A25C207C18363E3E700814718413697C8
:1001D000182398A17EA1014582807D5582805221FD
:1001E00076219377F60F13F7F60F6367D600338502
:1001F000E7401375F50F828008253E95198DD5BF10
:10020000B71702409843B706FFFC61111367170048
:1002100098C3D8432166758FD8C39843B706F7FEB5
:10022000FD16758F98C39843B706FCFFFD16758FB2
:1002300098C3D843C176FD16758FD8C337079F0082
:1002400098C702C002C2984FB70601401367170053
:1002500098CFD842518FD8C29843C1663706020062
:10026000558F98C3B716024009679C42F18F3EC272
:10027000824785073EC0924781E78247E397E7FEC2
:10028000B71702409C431397E7006358070685475A
:100290003EC2124785476310F706B72702409843CE
:1002A000C176FD16719B98C398431367170098C3D6
:1002B000B7170240D843D8C3D843758FD8C3D843A3
:1002C000C166558FD8C39843B7060001558F98C3B0
:1002D000984393166700E3DD06FED843B716024045
:1002E000719BD8C3D84313672700D8C32147DC428A
:1002F000B18BE39EE7FE2101828002C259BFEFF27B
:100300003FDA11651301C1FD85451305050202C4DD
:1003100002C602C802CA02CC02CE02D002C002C289
:100320007126930700027C8437140140E1473EC8E0
:100330002C008D47130504403EC685229307000418
:100340007C842C009147130504403EC8B922F16714
:1003500037440140938707203ECA4C08B7070C007A
:10036000130504803ECE02CC23100102B92E0546AF
:1003700093055052130504802521930700127C80B9
:1003800085475C810A8585473EC2DD228545130588
:100390000480E52E1301410209BBEFF27FD0B705BF
:1003A000002021469385850213858180D93BF5B9CC
:1003B000EFF21FCFAA8513858180C93BFDB1EFF213
:1003C0003FCE71119305310013858180E53388811B
:1003D0001101E1B9EFF2DFCC138581800935F1B16C
:1003E00001A001A001A001A001A001A001A001A005
:1003F00001A001A001A001A001A001A001A001A0F5
:1004000001A001A001A001A001A001A001A001A0E4
:1004100001A001A001A09701002093812141138137
:1004200081FD1705000013052540970500209385E1
:1004300065BD17060020130666BF63FAC500832258
:10044000050023A0550011059105E3EAC5FE170537
:1004500000201305A5BD938581816377B500232016
:1004600005001105E36DB5FE93020008739002309C
:100470008D4273904280970200009382A2B893E26B
:10048000320073905230EFF0BFD797020000938292
:10049000E2CA73901234730020309C45611122C26D
:1004A00026C013F7070113F3F70001C7D8413363E0
:1004B000E30092211377F60F29C783230500014734
:1004C00013048002930480048546B395E600B37656
:1004D000B6006392D50293122700BD46B39656002C
:1004E00093C6F6FFB3F37600B3125300B3E3720082
:1004F000639787064CC90507A146E317D7FC23205D
:1005000075001307F00F6378C70483234500A146E5
:1005100013048002930480040547B312D700337795
:1005200056006394E202139726000117BD45B39568
:10053000E50093C5F5FFB3F375003317E300B3632C
:10054000770063928702232A550085064147E39589
:10055000E6FC232275001244824421018280E39C40
:1005600097F80CC949BFE39297FE23285500F1BFC5
:10057000938741819443182181E63C21920721A869
:1005800094430546639FC6023C21103192076314D1
:10059000D60093E707F8B7E600E093F7F70FBA96AF
:1005A0002380F6408546935757003397E600544121
:1005B000A5C2938707048A07B7E600E0B69798C3F9
:1005C00082808C4389466391D50214313C21636556
:1005D000D6008A06B6975DB79386E6038A06B69775
:1005E00093F7F70F920775B790438D46631CD600BB
:1005F00014313C216364D6008606E9BF9386C607A2
:100600008606F1BF94439147E39EF6F81C31BDB7CF
:10061000938707064DB7EFF2BFA8371702405C4338
:1006200091462A84B18B6385D700A146638AD70699
:10063000B7376E01938707601CC0B7160240DC42D3
:10064000918313F7F700B707002093874701BA9704
:100650008C23DC42184093F5F50F93F707083355C8
:10066000B70099E33A85993C48C008C448C4B71715
:100670000240DC43AD83FD8B13D737008A07F18B33
:10068000D98F93F637010D476373D700D11737071A
:10069000002013070700BA978C230D3408C831B423
:1006A0005C43B777DC02938707C079B799C53717E2
:1006B00002401C4F5D8D08CF8280B7170240984FD3
:1006C0001345F5FF798D88CF8280EFF27F9D162943
:1006D000F577FD17F58FF621DA252111D58F1EA9A3
:1006E0005625FD779387379FF58FD6212A842EC014
:1006F000D58F9625D58FB625D58F5EA55E29C207E5
:10070000C18393F7F7CF5D8F5AA948002937B747C0
:100710000140938707808245631DF404C2475A2431
:10072000139517003E9542070E0541873E958C4173
:100730006353070486055932930540062AC0BD3A23
:10074000824793144500930540063E85713A5E2426
:10075000C207C18763D307020E0593054006130540
:100760002503A93A1D89C98CC204C18006A4610170
:100770002DBAB2476DB78A057DBF120593054006B5
:1007800013052503253A3D89F9BF91C55E25096703
:10079000D98F5EA582805A25F977FD17F98FD5BFCD
:1007A00013F7F50F85471583B395B7006319F70065
:1007B0009307C500984301CED98D8CC382808946AA
:1007C00093074501E318D7FE93070501E5B793C5E5
:1007D000F5FFF98DDDB793F5F51F4EA182804A2113
:1007E0001375F51F828013F7F50F85461583B397B0
:1007F000B6006311D7025A25F98F1A210145420725
:10080000418381CB0545A181B315B5006D8F33358B
:10081000E000828089466314D7001A29F1BF5A2963
:04082000E1BF000034
:100824000204060804080C10081018201020304098
:100834002040608001020304050607080102030446
:08084400050607080000000092
:00000001FF
