:100000006F004030000000004A0100004E01000077
:1000100000000000000000000000000000000000E0
:1000200000000000000000000000000000000000D0
:10003000D202000000000000D40200000000000016
:10004000D6020000D8020000DA020000DC02000044
:10005000DE020000E0020000E2020000E402000014
:10006000E6020000E8020000EA020000EC020000E4
:10007000EE020000F0020000F2020000F4020000B4
:10008000F6020000F8020000FA020000FC02000084
:10009000FE02000000030000020300000000000058
:1000A000511126C022C206C4828282441244A24058
:1000B000310182802A86014593F6150091C232955E
:1000C00085810606F5F9828000000000634E050276
:1000D00063C305042E86AA857D5515C285466378BF
:1000E000B6006356C00006068606E36CB6FE014500
:1000F00063E4C500918D558D85820582F5FA828075
:100100008682C93F2E8582823305A04063D70500D1
:10011000B305B040C1B7B305B0408682653F330533
:10012000A0408282868263C70500634905005D376F
:100130002E858282B305B040E35B05FE3305A04007
:10014000513F3305B040828200007300203001A08F
:10015000EFF21FF5511185451305000202C002C2DE
:1001600002C4012E85477C8037150140C1473EC43B
:100170008A858D47130505403EC239248545414592
:10018000CD2CA1478A85371501407C80F52A3101A5
:1001900029BFEFF2FFF02A84AE84D124054611C1B5
:1001A0000146A6852285C92409B7EFF27FEF3714EF
:1001B0000140793F13040440E12C85452285D13F5D
:1001C0001305401F1126A14537150140D937F5B752
:1001D000B71702409843B706FFFC61111367170079
:1001E00098C3D8432166758FD8C39843B706F7FEE6
:1001F000FD16758F98C39843B706FCFFFD16758FE3
:1002000098C3D843C176FD16758FD8C337079F00B2
:1002100098C702C002C2984FB70601401367170083
:1002200098CFD842518FD8C29843C1663706020092
:10023000558F98C3B716024009679C42F18F3EC2A2
:10024000824785073EC0924781E78247E397E7FEF2
:10025000B71702409C431397E7006358070685478A
:100260003EC2124785476310F706B72702409843FE
:10027000C176FD16719B98C398431367170098C306
:10028000B7170240D843D8C3D843758FD8C3D843D3
:10029000C166558FD8C39843B7060001558F98C3E0
:1002A000984393166700E3DD06FED843B716024075
:1002B000719BD8C3D84313672700D8C32147DC42BA
:1002C000B18BE39EE7FE2101828002C259BF01A0EB
:1002D00001A001A001A001A001A001A001A001A016
:1002E00001A001A001A001A001A001A001A001A006
:1002F00001A001A001A001A001A001A001A001A0F6
:1003000001A001A09701002093814150138181FF3A
:1003100013054050970500209385C5CE1706002091
:100320001306C6CE63FAC5008322050023A055003C
:1003300011059105E3EAC5FE17050020130505CD5B
:10034000970500209385C5CC6377B5002320050071
:100350001105E36DB5FE93020008739002308D42E3
:1003600073904280970200009382C2C993E23200E8
:1003700073905230EFF0DFE597020000938222E3A2
:1003800073901234730020309C45611122C226C044
:1003900013F7070113F3F70001C7D8413363E300F4
:1003A00092211377F60F29C7832305000147130411
:1003B0008002930480048546B395E600B376B600C8
:1003C0006392D50293122700BD46B396560093C69A
:1003D000F6FFB3F37600B3125300B3E372006397F2
:1003E00087064CC90507A146E317D7FC23207500F3
:1003F0001307F00F6378C70483234500A146130455
:100400008002930480040547B312D7003377560067
:100410006394E202139726000117BD45B395E500EA
:1004200093C5F5FFB3F375003317E300B3637700AB
:1004300063928702232A550085064147E395E6FC2F
:10044000232275001244824421018280E39C97F8A4
:100450000CC949BFE39297FE23285500F1BF4845D8
:100460006D8D3335A000828019C20CC982804CC9C1
:10047000828099C5371702401C4F5D8D08CF82805E
:10048000B7170240984F1345F5FF798D88CF8280CA
:10049000EFF21FC1B707002003A50700B7157A00C8
:1004A0009385052005391375F50FB70700202385BF
:1004B000A70093175500898F8A073E950E05B70749
:1004C00000202394A700D5B6EFF29FBD37F400E0DB
:1004D0005C40AA85F99B5CC0B707002003D5870064
:1004E000D13E08C8232404001C4093E717001CC019
:1004F000B7F700E0D843058B75DF9843799B98C325
:040500006DB60000D4
:08050400006CDC0200000000A5
:00000001FF
