:100000006F00203A000000004A0100004E0100008D
:1000100000000000000000000000000000000000E0
:1000200000000000000000000000000000000000D0
:1000300070030000000000007203000000000000D8
:100040007403000076030000780300007A030000C8
:100050007C0300007E030000800300008203000098
:100060008403000086030000880300008A03000068
:100070008C0300008E030000900300009203000038
:100080009403000096030000980300009A03000008
:100090009C0300009E030000A0030000000000007D
:1000A000511126C022C206C4828282441244A24058
:1000B000310182802A86014593F6150091C232955E
:1000C00085810606F5F9828000000000634E050276
:1000D00063C305042E86AA857D5515C285466378BF
:1000E000B6006356C00006068606E36CB6FE014500
:1000F00063E4C500918D558D85820582F5FA828075
:100100008682C93F2E8582823305A04063D70500D1
:10011000B305B040C1B7B305B0408682653F330533
:10012000A0408282868263C70500634905005D376F
:100130002E858282B305B040E35B05FE3305A04007
:10014000513F3305B040828200007300203001A08F
:10015000EFF21FF5AA8405651301C1FD2E84130576
:100160000582854502CC02CE02D002C002C2231411
:10017000010002C602C8231A010031298545054540
:1001800015298145370500408D23914737150140DA
:10019000FC842C0893078002130505403ED071248F
:1001A0006086373401406C00130504C0E4802319D5
:1001B000010023170100230A0100CD21B707020027
:1001C0003EC08A858547130504C03EC22314010042
:1001D000C523130504C0930500050523130504C0BA
:1001E00099458123130504C093050008B123130525
:1001F00004C0C145192B814537050040FD299945AB
:1002000037050040392B1301410245B5EFF25FE994
:10021000EF00407B716513050520EF005002B70722
:10022000002083A507003715000013058509EF009E
:100230007064B16541659385F5B77D15113F37143D
:100240000000B737014083D547C21305840AEF0089
:100250007062B7070040CE33371500001305850BD9
:10026000EF00506113054006EF008079D9BFB71742
:1002700002409843B706FFFC61111367170098C34B
:10028000D8432166758FD8C39843B706F7FEFD168D
:10029000758F98C39843B706FCFFFD16758F98C3FA
:1002A000D843C176FD16758FD8C337079F0098C70E
:1002B00002C002C2984FB70601401367170098CFDB
:1002C000D842518FD8C29843C16637060200558F75
:1002D00098C3B716024009679C42F18F3EC282471D
:1002E00085073EC0924781E78247E397E7FEB7174D
:1002F00002409C431397E7006358070685473EC2B8
:10030000124785476310F706B72702409843C17626
:10031000FD16719B98C398431367170098C3B717CE
:100320000240D843D8C3D843758FD8C3D843C166D9
:10033000558FD8C39843B7060001558F98C398438B
:1003400093166700E3DD06FED843B7160240719BA3
:10035000D8C3D84313672700D8C32147DC42B18BE9
:10036000E39EE7FE2101828002C259BF01A001A0E5
:1003700001A001A001A001A001A001A001A001A075
:1003800001A001A001A001A001A001A001A001A065
:1003900001A001A001A001A001A001A001A001A055
:1003A00001A09701002093816148138181FD1715F9
:1003B0000000130525D2970500209385A5C41706D4
:1003C00000201306A6C663FAC5008322050023A0F9
:1003D000550011059105E3EAC5FE17050020130538
:1003E000E5C4970500209385A5C46377B500232055
:1003F00005001105E36DB5FE93020008739002300D
:100400008D4273904280970200009382A2BF93E2D4
:10041000320073905230EFF09FE597020000938214
:1004200022DF73901234730020309C45611122C288
:1004300026C013F7070113F3F70001C7D841336350
:10044000E30092211377F60F29C7832305000147A4
:1004500013048002930480048546B395E600B376C6
:10046000B6006392D50293122700BD46B39656009C
:1004700093C6F6FFB3F37600B3125300B3E37200F2
:10048000639787064CC90507A146E317D7FC2320CD
:1004900075001307F00F6378C70483234500A14656
:1004A00013048002930480040547B312D700337706
:1004B00056006394E202139726000117BD45B395D9
:1004C000E50093C5F5FFB3F375003317E300B3639D
:1004D000770063928702232A550085064147E395FA
:1004E000E6FC232275001244824421018280E39CB1
:1004F00097F80CC949BFE39297FE23285500F1BF36
:10050000EFF21FBA371702405C4391462A84B18B41
:100510006385D700A146638AD706B7376E019387F4
:1005200007601CC0B7160240DC42918313F7F70046
:10053000B707002093878701BA978C23DC421840C5
:1005400093F5F50F93F707083355B70099E33A850C
:10055000513648C008C448C4B7170240DC43AD83D5
:10056000FD8B13D737008A07F18BD98F93F63701AC
:100570000D476373D700D1173707002013074700D3
:10058000BA978C23813E08C80DB65C43B777DC026E
:10059000938707C079B799C5371702401C4F5D8D07
:1005A00008CF8280B7170240984F1345F5FF798D29
:1005B00088CF828099C5371702405C4F5D8D48CF48
:1005C0008280B7170240D84F1345F5FF798DC8CF09
:1005D00082801E319206C207C183F99BC207C18384
:1005E0001EB11A2D1E310353850142074183336327
:1005F00066001377C7F0558E518FB7360140C2079A
:100600004207231C6500938606C0C18341836306AD
:10061000D500B70600406319D500F59BCD8F93E751
:1006200017001AAD1EB18280D59BCDBF1E312206A8
:100630004206C207C183BD9BC207C1831EB10353DB
:10064000850185679387F7CF1A31B3F767000353A6
:1006500085014182B20633636600558ED18FB7366D
:1006600001404207C207231C6500938606C04183F0
:10067000C1836306D500B7060040631DD50092050F
:100680001377F7FDD98DC205C18193E505011EAD34
:100690000EB182801377F7F5D98DC5BF1E2137378C
:1006A0000140130707C0C207C1836306E50037078F
:1006B00000406316E500BA2193F7F7F8D98FFA21C5
:1006C00093F7F7CFC207C183D98F1EA1DE215EB594
:1006D0009E211EB5B7370140938707C06314F5000C
:1006E0009C251EB985475EA982801E21C207C18351
:1006F00093F7F7F8DD8D0EA182801E25C207C18316
:1007000093F7F7F8DD8D0EA582805E21C207C183C5
:1007100093F7F7F8C207C1835EA15E21DD8D4EA17C
:1007200082801E25C207C183E19BC207C1831EA52B
:100730001E25DD8D0EA582801E25C207C18393F77D
:10074000F7F7C207C1831EA51E25DD8D0EA5828089
:100750001E2DC207C183CD9BC207C1831EAD1E2DB6
:10076000DD8D0EAD82801A2DFD779387F73FF98FCF
:100770001EAD1E2DA205DD8DC205C1810EAD82808C
:100780005E2DC207C183CD9BC207C1835EAD5E2DC6
:10079000DD8D4EAD82805A2DFD779387F73FF98F1F
:1007A0005EAD5E2DA205DD8DC205C1814EAD82809C
:1007B000EFF21F8F9A212A84AE84BE21D221962582
:1007C00019E7BE853935EE2022855937F9B89145AC
:1007D0006318B700BE85993DEE2022856937FDB7C5
:1007E0002145EE20631AA7061A309206420741837C
:1007F0001377F7EF420741831AB04A2C1A3003539C
:10080000C401420541811375C5F033636600498E0A
:10081000558EB736014042074206231E6400938678
:1008200006C0418341826306D400B7060040631FBF
:10083000D400A2071377F7DFD98FC207C18393E7EC
:10084000071052AC1EB02285253F49B7FD7693862E
:10085000F65F758FD98FE5B70A307D777D17698F81
:100860001AB04A2C05671307F7CF03530402698FA8
:1008700022064A2C42064182B206518D558E598E6F
:1008800037370140420342064AAC130707C01353EF
:10089000030141826306E400370700406312E4026B
:1008A00079777D17B2073373E300B3E76700C207B8
:1008B000C1830567D98F52AC1EB02285E93D39B797
:1008C00021671307F7DF3373E300B3E76700D5B79A
:1008D000EFF20FFD1629F577FD17F58FF621DA25D2
:1008E0002111D58F1EA95625FD779387379FF58F48
:1008F000D6212A842EC0D58F9625D58FB625D58FA3
:100900005EA55E29C207C18393F7F7CF5D8F5AA911
:100910004800FD36B7470140938707808245631240
:10092000F406C2475A24139517003E9542070E0558
:1009300041873E958C41635807048605EFF08FF997
:10094000930540062AC0EFF0EFF882479314450064
:10095000930540063E85EFF0AFFA5E24C207C187DB
:1009600063D507020E059305400613052503EFF036
:100970006FF61D89C98CC204C18006A461016FF0A5
:10098000CFF2B24745B78A0555BF12059305400619
:1009900013052503EFF00FF43D89E9BF91C55E25EE
:1009A0000967D98F5EA582805A25F977FD17F98FDF
:1009B000D5BF93F5F51F4EA182800A216D8D333589
:1009C000A0008280EFF2CFEDB707002003A507005B
:1009D000B7157A0093850520EFF0CFEF1375F50F6B
:1009E000B70700202385A70293175500898F8A0730
:1009F0003E950E05B70700202394A7026FF0EFEA9B
:100A0000EFF20FEA37F400E05C40AA85F99B5CC086
:100A1000B707002003D58702EFF0CFE908C82324E9
:100A200004001C4093E717001CC0B7F700E0D84350
:100A3000058B75DF9843799B98C36FF00FE7EFF252
:100A40002FE62A8411651111854513050502A1368B
:100A5000930700027C80371501408D473EC28A858E
:100A6000E147130505403EC4C93222C63744014060
:100A7000B70708006C00130504803ECA02C8231C97
:100A80000100B935854513050480093F71016FF0F8
:100A9000CFE1EFF2EFE07111AE840144635DC40277
:100AA000B7470140138707803A859305000432C099
:100AB0002937B747014013870780024675D533872A
:100AC000840083050700138507800504C205C181E2
:100AD000CD350246E1B7328511016FF00FDD4111CE
:100AE00006C62EC00DCD1841AA8705C358417D55B5
:100AF00011CB8546631BD70098472300070023A22C
:100B000007000545B240410182809847824614A300
:100B10009847050798C7D8437D17D8C3DDB7054662
:100B20008A85853FF9BF011122CC2EC206CE26CA86
:100B30002A84814793050002634506029245BE95CB
:100B4000838505008DE563D8C70263D4E702198E5B
:100B50001305000293F526002AC089C501E7930515
:100B600000032EC0858A814495EAB2840DA08507D2
:100B7000F1B71D8EF1BF0146E1BF824522853AC81B
:100B800032C63EC4A93FA24732464247FD14E3465F
:100B900090FEB284635306008144058E63C7E7026A
:100BA000A68792463387974036978305070095EDD1
:100BB000B28463449004635306000146F2406244E9
:100BC000D2443305F600056182801D8FBA879305F4
:100BD0000003228532C83EC63AC41137B2472247C5
:100BE0004246FD17EDF7BA9465BF228532C63EC472
:100BF000FD35A247324685076DB78245228532C44E
:100C00003EC2F13DFD142246924765B7397106DEBA
:100C100022DC26DA3EC232833A8689ED9246930779
:100C2000000301476C08FC86FD3DF2506254D2542B
:100C300021618280AA843684AE8791CA2947014403
:100C40006317E30063D50500B307B040054486464B
:100C5000A309010213073103938666FC36C49A8503
:100C60003E8532CA3AC81AC63EC0EFF06FC9A546E3
:100C7000824732434247524663D4A600A246369585
:100C8000130505039306F7FFA30FA7FE9A853E857C
:100C900032CC3ACA1AC83EC636C0EFF0AFC3B2472C
:100CA00042435247624663F9670401CC29CA92471E
:100CB000898BB1C79305D002268532C40D352246F3
:100CC0007D169247918B95C306479307100632C451
:100CD000930500032685631EF702113593058007EF
:100CE0002685F53B22460904791616479246824529
:100CF0002685153D229515BFAA8702478DB78246E6
:100D00009307D0020144A38FF6FE9307E7FF3EC08E
:100D10004DBFF13393058005E1B701458280014560
:100D20008280130181FD22D026CE06D22AC4AE8253
:100D3000328402C681448385020089EDA24781C7BF
:100D400081453E85693B925002542685F244130149
:100D500081028280930750026388F500224516C8FD
:100D60008504B53BC24239A883871200138712005D
:100D7000639CB7002245930550023AC88D33424721
:100D80008504BA82850245BFD5DB9306B00263892C
:100D9000D70463C8F600930630026386D704814700
:100DA00005A09306D002638AD70093060003E39858
:100DB000D7FE13872200894721A013872200854789
:100DC000830607001306B0026383C6046341D6029C
:100DD00013063002638BC602BA820145A54681A084
:100DE000138722006DBF138722009147D1BF1306DE
:100DF000D0026389C60013060003E39FC6FC93E795
:100E0000270031A005078547C1BF93E747000507C5
:100E1000E1B713162500329506053A95850203863B
:100E20000200130706FD9375F70FE3F4B6FE1307F0
:100E3000E0029946631EE60085028146A5450386C9
:100E40000200130606FD1377F60F63F5E50236C6BA
:100E5000038702001306A006630DC70A6343E60278
:100E60001306C0046307C70A13068006630CC7088D
:100E700081452DA813972600BA968606B29685025C
:100E80007DBF130640076306C7081306A007630269
:100E9000C7081306C0068145631AC70003861200FF
:100EA0008D456314E60085029145850203860200A4
:100EB000930300061307100663C4C300130710044E
:100EC0009303700663C4C3069303500663537618F6
:100ED0009303700463C1C30493055004635BB616A7
:100EE00013073004E310E6EA18409303440016CADF
:100EF000230CE1001EC8A30C01000147BE862A8610
:100F00002C0849A8038612008145E311E6FA8902FC
:100F100071BF8502B1BF93063006E307D6FC63CEEE
:100F2000C606930680056303D602A9BD9306300763
:100F30006304D60463CBC6029306F0066302D60EA2
:100F40009306000793E74700E31ED6E29146639FAE
:100F5000D50A930384000C40504016CA3AC23EC0E2
:100F60001EC8AA870147C146B9A093065007630867
:100F7000D6069306800745BF1840B71600009303B6
:100F800044009385860C11C3BA85324716CA1EC821
:100F9000BE862A862245413E0DA091466394D50225
:100FA000930384000C40504016CA3AC23EC01EC88B
:100FB000AA870547A94622458D33C243AA941E84B9
:100FC000D242C9B3B2460C4016C836C23AC0110468
:100FD0002A878546294622451539AA9461B3914648
:100FE000639DD500930384000C40504016CA3AC25A
:100FF0003EC01EC8AA87014775BFB2460C4016C83E
:1010000036C23AC011042A878146E9B7B24616C8EB
:101010000C40414636C23AC011042A87814665BF5A
:101020009146639ED500930384000C40504016CA3D
:101030003AC23EC01EC8AA870147A146ADBFB2460C
:101040000C4016C836C23AC011042A878146214690
:1010500059B70C401306840040403AC22A87224503
:1010600032C83EC02286B687A94616CA4D39AA9410
:101070004244B9B71301C1FD2EC832CAAA8510086F
:10108000014506C636CC3ACE3ED032C05939B240C0
:10109000130141028280000053797374656D436CC3
:1010A0006B3A25640D0A000054494D3120636E747B
:1010B0003A25640D0A00000054494D3220636E74D5
:1010C0003A25640D0A000000286E756C6C2900003A
:1010D000006CDC020204060804080C10081018203A
:1010E00010203040204060800102030405060708FC
:0810F0000102030405060708D4
:00000001FF
