:100000006F00204500000000F4020000F80200002C
:1000100000000000000000000000000000000000E0
:1000200000000000000000000000000000000000D0
:100030002004000000000000220400000000000076
:100040002404000026040000280400002A04000004
:100050002C0400002E0400003004000032040000D4
:100060003404000036040000380400003A040000A4
:100070003C0400003E040000400400004204000074
:100080004404000046040000480400004A04000044
:100090004C0400004E04000050040000000000006A
:1000A000511126C022C206C4828282441244A24058
:1000B000310182802A86014593F6150091C232955E
:1000C00085810606F5F9828000000000634E050276
:1000D00063C305042E86AA857D5515C285466378BF
:1000E000B6006356C00006068606E36CB6FE014500
:1000F00063E4C500918D558D85820582F5FA828075
:100100008682C93F2E8582823305A04063D70500D1
:10011000B305B040C1B7B305B0408682653F330533
:10012000A0408282868263C70500634905005D376F
:100130002E858282B305B040E35B05FE3305A04007
:10014000513F3305B04082820000EFF27FF511117C
:100150008545414502C002C202C402C602C802CAA5
:1001600002CC1D2D854537052000B12599477C809F
:10017000F1473EC48A858D47371501403EC2B12EF6
:100180009307803E3EC6B7070040375400403EC844
:10019000B70700043ECA6C00916713050440FC8455
:1001A0000129854513050440C5217101FDBDEFF20C
:1001B0003FEFAA84375500408545130505403704B5
:1001C0000300F9290504B757004013850740A285AD
:1001D000292BB757004065D901469305C004138504
:1001E000074037040700CD2913042408B7570040FF
:1001F00013850740A285D529B757004065D993F5E7
:10020000F40F1385074037040700E921130444085D
:10021000B7540040A28513850440C12975D985458E
:1002200013850440592951B5EFF29FE7937705FFF5
:10023000120562057111618513E74700DC80936741
:1002400045001365850058805C81C8810144B3076F
:100250008100038507000504993F9147E319F4FEE7
:100260001101A1B5EFF2DFE3937705FF12056205F7
:100270007111618513E7D70093E79700DC809367DE
:10028000D5001365950058805C81C8810144B3078F
:100290008100038507000504193F9147E319F4FE27
:1002A000110121B5EFF2DFDF13053003B53F29451A
:1002B0008523130520038D3F13052003912B130580
:1002C00080029D3713052003A1230545B13F130587
:1002D00020033D2B1945893F13052003152B31457C
:1002E000A137130520032D2309453D3F13052003A6
:1002F000052365BB7300203001A0EFF27FDAD92916
:10030000A9354D374544131584016185A13F050486
:100310001374F40F9307F00FE317F4FEE5B7B71764
:1003200002409843B706FFFC61111367170098C39A
:10033000D8432166758FD8C39843B706F7FEFD16DC
:10034000758F98C39843B706FCFFFD16758F98C349
:10035000D843C176FD16758FD8C337079F0098C75D
:1003600002C002C2984FB70601401367170098CF2A
:10037000D842518FD8C29843C16637060200558FC4
:1003800098C3B716024009679C42F18F3EC282476C
:1003900085073EC0924781E78247E397E7FEB7179C
:1003A00002409C431397E7006358070685473EC207
:1003B000124785476310F706B72702409843C17676
:1003C000FD16719B98C398431367170098C3B7171E
:1003D0000240D843D8C3D843758FD8C3D843C16629
:1003E000558FD8C39843B7060001558F98C39843DB
:1003F00093166700E3DD06FED843B7160240719BF3
:10040000D8C3D84313672700D8C32147DC42B18B38
:10041000E39EE7FE2101828002C259BF01A001A034
:1004200001A001A001A001A001A001A001A001A0C4
:1004300001A001A001A001A001A001A001A001A0B4
:1004400001A001A001A001A001A001A001A001A0A4
:1004500001A0970100209381613D138181FD170563
:1004600000001305253F970500209385A5B91706C1
:1004700000201306A6BB63FAC5008322050023A053
:10048000550011059105E3EAC5FE17050020130587
:10049000E5B9970500209385A5B96377B5002320BA
:1004A00005001105E36DB5FE93020008739002305C
:1004B0008D4273904280970200009382A2B493E22F
:1004C000320073905230EFF09FE597020000938264
:1004D00002E373901234730020309C45611122C2F4
:1004E00026C013F7070113F3F70001C7D8413363A0
:1004F000E30092211377F60F29C7832305000147F4
:1005000013048002930480048546B395E600B37615
:10051000B6006392D50293122700BD46B3965600EB
:1005200093C6F6FFB3F37600B3125300B3E3720041
:10053000639787064CC90507A146E317D7FC23201C
:1005400075001307F00F6378C70483234500A146A5
:1005500013048002930480040547B312D700337755
:1005600056006394E202139726000117BD45B39528
:10057000E50093C5F5FFB3F375003317E300B363EC
:10058000770063928702232A550085064147E39549
:10059000E6FC232275001244824421018280E39C00
:1005A00097F80CC949BFE39297FE23285500F1BF85
:1005B000EFF21FAF111146212A8428002EC0892294
:1005C000C246C204C18093F404FCB7450F00938572
:1005D00005243685C20436C2C180ED3C458D4205F6
:1005E00041814AA01E209246C207C183F99BC207DF
:1005F000C1831EA082479043E1679387076A9315E2
:10060000160063E4C7043685F134AA8742054181A8
:1006100091466373D50091471395070141814AAC18
:100620001E20024793E717001EA01E2056233227E4
:10063000C207C183D18E93F757BFD58F1EA016274F
:100640005E27D58F1EA471018DB48247EA23B1675E
:10065000FD17631FF500B2953685AD3C420541811B
:100660009317450199E313651500A1675D8D45BF9B
:10067000B387C5008E07B385C7003685A13C420508
:10068000418191675D8DE9BF1E2189C593E7170000
:100690001EA18280C207C183F99BC207C183CDBF5F
:1006A0001E2189C593E707101EA18280C207C1835E
:1006B00093F7F7EFC207C183C5BF1E2189C593E732
:1006C00007201EA18280C207C18393F7F7DFC2070C
:1006D000C183C5BF0EA9828093F7E50F19C293E7C6
:1006E0001500C207C1831EA982805E290A2D42051A
:1006F0005D8D6D8D220521810D8D13351500828054
:10070000EFF21F9A371702405C4391462A84B18B5F
:100710006385D700A146638BD706B7376E019387F1
:1007200007601CC0B7160240DC42918313F7F70044
:10073000B707002093878701BA978C23DC421840C3
:1007400093F5F50F93F707083355B70099E33A850A
:10075000513248C008C448C4B7170240DC43AD83D7
:10076000FD8B13D737008A07F18BD98F93F63701AA
:100770000D476373D700D1173707002013074700D1
:10078000BA978C23813A08C86FF03F925C43B777E1
:10079000DC02938707C071B799C5371702401C4F19
:1007A0005D8D08CF8280B7170240984F1345F5FF43
:1007B000798D88CF828099C5371702405C4F5D8D57
:1007C00048CF8280B7170240D84F1345F5FF798D87
:1007D000C8CF8280EFF2DF8CB707002003A50700A7
:1007E000B7157A0093850520EFF0DF8E1375F50FAE
:1007F000B70700202385A70293175500898F8A0722
:100800003E950E05B70700202394A7026FF0FF89DD
:10081000EFF21F8937F400E05C40AA85F99B5CC0C9
:10082000B707002003D58702EFF0DF8808C823242C
:1008300004001C4093E717001CC0B7F700E0D84342
:10084000058B75DF9843799B98C36FF01F86000076
:10085000006CDC020204060804080C1008101820C2
:100860001020304020406080010203040506070884
:0808700001020304050607085C
:00000001FF
